:100000000C942A000C9447000C9447000C94470071
:100010000C9447000C9447000C9447000C94470044
:100020000C9447000C9447000C9447000C94470034
:100030000C9447000C9447000C9447000C94470024
:100040000C9447000C9447000C9447000C94470014
:100050000C94470011241FBECFE5D8E0DEBFCDBF12
:1000600010E0A0E6B0E0ECEFFCE402C005900D92D9
:10007000A83DB107D9F710E0A8EDB0E001C01D928E
:10008000A93EB107E1F70E9434230C947C260C941E
:100090000000EF92FF920F931F937B018C0120E0F1
:1000A00030E040E05FE40E94F50388238CF0C80153
:1000B000B70120E030E040E05FE40E94C1010E940F
:1000C00055049B01AC01205030404040504806C0D0
:1000D000C801B7010E9455049B01AC01B901CA01D6
:1000E0001F910F91FF90EF900895A0E0B0E0EBE733
:1000F000F0E00C947E23DC012B01FA019C919230FC
:1001000008F439C1EB018881823008F433C194309E
:1001100069F4843009F02FC111969C91119789815F
:10012000981709F428C1AAE9B0E025C1843009F480
:1001300021C18230A9F4923009F01DC19A01AD01AC
:1001400088E0EA010990AE01E90109929E0181501F
:10015000C1F7E201898111969C918923818308C1AD
:10016000923009F407C112962D903C901397EB0141
:100170008A819B811496AD90BD90CD90DC901797AD
:10018000EC80FD800E811F819101281B390BB90184
:1001900037FF04C066277727621B730B6032710537
:1001A0000CF061C0121613066CF537014801062EDB
:1001B00004C096948794779467940A94D2F721E0C8
:1001C00030E040E050E004C0220F331F441F551FB1
:1001D0006A95D2F721503040404050402E213F21B7
:1001E00040235123211531054105510521F021E01E
:1001F00030E040E050E079018A01E628F72808293C
:1002000019293CC0232BD1F1260E371E350146019A
:10021000062E04C096948794779467940A94D2F734
:1002200021E030E040E050E004C0220F331F441FC3
:10023000551F6A95D2F721503040404050402A2146
:100240003B214C215D21211531054105510521F04E
:1002500021E030E040E050E059016A01A628B728CB
:10026000C828D9280BC0821593052CF01C01AA249C
:10027000BB24650103C0EE24FF24870111969C91E5
:10028000D20111968C91981709F445C0992339F041
:10029000A80197012A193B094C095D0906C0A6016E
:1002A00095012E193F09400B510B57FD08C01182D3
:1002B0003382228224833583468357831DC081E0A5
:1002C00081833382228288279927DC01821B930B4A
:1002D000A40BB50B84839583A683B7830DC0220F2F
:1002E000331F441F551F24833583468357838281E0
:1002F000938101979383828324813581468157813D
:10030000DA01C9010197A109B1098F5F9F4FAF4F72
:10031000BF4328F30BC0918333822282EA0CFB1C7B
:100320000C1D1D1DE482F5820683178383E0808304
:10033000248135814681578157FF1AC0C901AA27F8
:1003400097FDA095BA2F81709070A070B0705695EF
:10035000479537952795822B932BA42BB52B848318
:100360009583A683B7838281938101969383828349
:10037000DF0101C0D201CD01CDB7DEB7E2E10C94BF
:100380009A23A0E2B0E0E7ECF1E00C948A236983C1
:100390007A838B839C832D833E834F835887E9E048
:1003A000EE2EF12CEC0EFD1ECE010196B7010E943F
:1003B0007E058E010F5E1F4FCE010596B8010E948B
:1003C0007E058A8991E089278A8BC701B801AE0131
:1003D000475E5F4F0E9475000E94A904A096E6E068
:1003E0000C94A623A0E2B0E0E8EFF1E00C948A239D
:1003F00069837A838B839C832D833E834F835887C5
:10040000F9E0EF2EF12CEC0EFD1ECE010196B701A6
:100410000E947E058E010F5E1F4FCE010596B8012A
:100420000E947E05C701B801AE01475E5F4F0E9482
:1004300075000E94A904A096E6E00C94A623A0E211
:10044000B0E0E5E2F2E00C947E2369837A838B834B
:100450009C832D833E834F835887CE010196BE0136
:10046000675F7F4F0E947E05CE010596BE016F5EDD
:100470007F4F0E947E059985923088F0898982306D
:10048000C8F0943019F4823051F404C0843029F457
:10049000923081F48AE990E0C6C0923049F420E0BD
:1004A0009A858A89981321E02A87CE010996BBC0D4
:1004B000823049F420E09A858A89981321E02A8BBA
:1004C000CE014196B0C02D843E844F8458886D88FB
:1004D0007E888F88988CEE24FF248701AA24BB2471
:1004E000650140E050E060E070E0E0E0F0E0C10174
:1004F00081709070892BE9F0E60CF71C081D191D1E
:100500009A01AB012A0D3B1D4C1D5D1D80E090E062
:10051000A0E0B0E0E614F7040805190520F481E036
:1005200090E0A0E0B0E0BA01A901480F591F6A1F8E
:100530007B1FAA0CBB1CCC1CDD1C97FE08C081E0F5
:1005400090E0A0E0B0E0A82AB92ACA2ADB2A3196B6
:10055000E032F10549F0660C771C881C991C569412
:10056000479437942794C3CFFA85EA892B893C892D
:100570008B859C85280F391F2E5F3F4F17C0CA01FE
:1005800081709070892B61F016950795F794E79428
:1005900080E090E0A0E0B0E8E82AF92A0A2B1B2BC3
:1005A00076956795579547952F5F3F4F77FDE7CF36
:1005B0000CC0440F551F661F771F17FD4160EE0CDE
:1005C000FF1C001F111F21503040403090E05907A0
:1005D00090E0690790E4790760F32B8F3C8FDB0193
:1005E000CA018F779070A070B07080349105A1051A
:1005F000B10561F447FD0AC0E114F10401051105DC
:1006000029F0405C5F4F6F4F7F4F40781A8EFE1786
:1006100011F081E08A8F4D8F5E8F6F8F78A383E01A
:10062000898FCE0149960E94A904A096E2E10C941C
:100630009A23A8E1B0E0EFE1F3E00C94862369830C
:100640007A838B839C832D833E834F835887B9E0C5
:10065000EB2EF12CEC0EFD1ECE010196B7010E948F
:100660007E058E010F5E1F4FCE010596B8010E94D8
:100670007E052985223008F47EC03989323010F495
:10068000B8017CC08A859A8989278A87243011F02D
:10069000223031F4231709F06EC06AE970E06EC0B1
:1006A000343039F41D861E861F86188A1C861B86E8
:1006B00004C0323021F484E08987B7015FC02B8504
:1006C0003C858B899C89281B390B3C872B87ED84C3
:1006D000FE840F851889AD88BE88CF88D88CEA142F
:1006E000FB040C051D0540F4EE0CFF1C001F111F40
:1006F000215030403C872B8720E030E040E050E044
:1007000080E090E0A0E0B0E460E070E0EA14FB0478
:100710000C051D0540F0282B392B4A2B5B2BEA18C2
:10072000FB080C091D09B695A79597958795EE0CC2
:10073000FF1C001F111F6F5F7F4F6F31710531F775
:10074000DA01C9018F779070A070B0708034910584
:10075000A105B10561F427FD0AC0E114F10401050A
:10076000110529F0205C3F4F4F4F5F4F20782D87B8
:100770003E874F87588BBE01675F7F4FCB010E943A
:10078000A9046896EAE00C94A223A8E1B0E0EBEC9F
:10079000F3E00C948A2369837A838B839C832D8373
:1007A0003E834F83588789E0E82EF12CEC0EFD1E26
:1007B000CE010196B7010E947E058E010F5E1F4F8C
:1007C000CE010596B8010E947E058985823040F0F1
:1007D0008989823028F0C701B8010E94F60501C05E
:1007E0008FEF6896E6E00C94A623A8E1B0E0EBEF6B
:1007F000F3E00C948A2369837A838B839C832D8313
:100800003E834F83588789E0E82EF12CEC0EFD1EC5
:10081000CE010196B7010E947E058E010F5E1F4F2B
:10082000CE010596B8010E947E058985823040F090
:100830008989823028F0C701B8010E94F60501C0FD
:100840008FEF6896E6E00C94A623A8E1B0E0EBE217
:10085000F4E00C948A2369837A838B839C832D83B1
:100860003E834F83588789E0E82EF12CEC0EFD1E65
:10087000CE010196B7010E947E058E010F5E1F4FCB
:10088000CE010596B8010E947E058985823040F030
:100890008989823028F0C701B8010E94F60501C09D
:1008A00081E06896E6E00C94A623ACE0B0E0EBE5CE
:1008B000F4E00C948E2369837A838B839C83CE012E
:1008C0000196BE016B5F7F4F0E947E058D81823055
:1008D00061F1823050F1843021F48E81882351F10E
:1008E0002EC02F81388537FD20C06E812F31310514
:1008F0001CF06623F9F023C08EE190E0821B930B7D
:1009000029853A854B855C8504C056954795379572
:1009100027958A95D2F76623B1F05095409530958A
:1009200021953F4F4F4F5F4F0EC020E030E040E039
:1009300050E009C02FEF3FEF4FEF5FE704C020E02A
:1009400030E040E050E8B901CA012C96E2E00C9496
:10095000AA23DF92EF92FF920F931F93FC01E48092
:10096000F58006811781D1808081823048F480E053
:1009700090E0A0E1B0E0E82AF92A0A2B1B2BA5C0E1
:10098000843009F49FC0823021F4EE24FF248701D3
:1009900005C0E114F1040105110519F4E0E0F0E0EF
:1009A00096C0628173819FEF623879070CF05BC05B
:1009B00022E83FEF261B370B2A3131052CF020E0CF
:1009C00030E040E050E02AC0B801A701022E04C088
:1009D00076956795579547950A94D2F781E090E010
:1009E000A0E0B0E004C0880F991FAA1FBB1F2A9582
:1009F000D2F70197A109B1098E219F21A023B1232C
:100A00000097A105B10521F081E090E0A0E0B0E001
:100A10009A01AB01282B392B4A2B5B2BDA01C90138
:100A20008F779070A070B07080349105A105B105EA
:100A300039F427FF09C0205C3F4F4F4F5F4F04C080
:100A4000215C3F4F4F4F5F4FE0E0F0E02030A0E0EF
:100A50003A07A0E04A07A0E45A0710F0E1E0F0E00E
:100A600079018A0127C06038710564F5FB01E158FE
:100A7000FF4FD801C7018F779070A070B07080349D
:100A80009105A105B10539F4E7FE0DC080E490E0C1
:100A9000A0E0B0E004C08FE390E0A0E0B0E0E80E9A
:100AA000F91E0A1F1B1F17FF05C016950795F7941F
:100AB000E794319687E016950795F794E7948A9521
:100AC000D1F705C0EE24FF248701EFEFF0E06E2F91
:100AD000679566276795902F9F77D794DD24D794E5
:100AE0008E2F8695492F462B582F5D29B701CA01B5
:100AF0001F910F91FF90EF90DF900895FC01DB01B3
:100B0000408151812281622F6F7770E0221F22275E
:100B1000221F9381892F880F822B282F30E0991F65
:100B20009927991F11969C93119721153105A9F5C5
:100B3000411551056105710511F482E037C082E865
:100B40009FEF13969C938E9312979A01AB0167E0E7
:100B5000220F331F441F551F6A95D1F783E08C93F2
:100B60000DC0220F331F441F551F12968D919C916B
:100B70001397019713969C938E931297203080E0E1
:100B8000380780E0480780E4580758F314962D93FF
:100B90003D934D935C93179708952F3F310579F45A
:100BA000411551056105710519F484E08C93089590
:100BB00064FF03C081E08C9312C01C9210C02F57B9
:100BC000304013963C932E93129783E08C9387E0EA
:100BD000440F551F661F771F8A95D1F770641496CE
:100BE0004D935D936D937C93179708951F93DC014C
:100BF000FB019C91923008F447C08081823008F458
:100C000043C0943051F411961C91843099F5818140
:100C1000682F70E0611B71093FC0843021F0923071
:100C200031F48230B9F18181882389F12DC0119688
:100C30001C9111978230F1F081811817D9F4129626
:100C40002D913C911397828193818217930794F0A1
:100C500028173907BCF014968D919D910D90BC9189
:100C6000A02D2481358146815781281739074A07ED
:100C70005B0718F4112341F00AC082179307A407F9
:100C8000B50740F4112319F061E070E005C06FEF83
:100C90007FEF02C060E070E0CB011F910895DF9309
:100CA000CF93CDB7DEB727970FB6F894DEBF0FBE50
:100CB000CDBF9B838A8381E089838A819B81009752
:100CC00011F41982EAC0EA81FB81808182958695C0
:100CD00087708170282F30E03F832E838E819F8123
:100CE000009731F02E813F812130310591F15FC0B5
:100CF000EA81FB8180818370882F90E0880F991FA3
:100D0000FC01EE55FF4FA081B181EA81FB8180811A
:100D10008370882F90E0880F991FFC01EE55FF4FDC
:100D20000190F081E02D8081482FEA81FB81808154
:100D3000869586958770282F30E081E090E0022E1E
:100D400002C0880F991F0A94E2F7809584238C9340
:100D50002EC0EA81FB8180818370882F90E0880F0C
:100D6000991FFC01EE55FF4FA081B181EA81FB8103
:100D700080818370882F90E0880F991FFC01EE55C9
:100D8000FF4F0190F081E02D8081482FEA81FB81A7
:100D90008081869586958770282F30E081E090E0ED
:100DA00002C0880F991F2A95E2F7842B8C93EA8161
:100DB000FB81808182958695869583708170282F2E
:100DC00030E03D832C838C819D81009731F02C8114
:100DD0003D812130310591F160C0EA81FB81808144
:100DE0008370882F90E0880F991FFC01E655FF4F14
:100DF000A081B181EA81FB8180818370882F90E09E
:100E0000880F991FFC01E655FF4F0190F081E02DFE
:100E10008081482FEA81FB81808186958695877045
:100E2000282F30E081E090E0022E02C0880F991F49
:100E30000A94E2F7809584238C932FC0EA81FB818A
:100E400080818370882F90E0880F991FFC01E65500
:100E5000FF4FA081B181EA81FB8180818370882F5F
:100E600090E0880F991FFC01E655FF4F0190F0813B
:100E7000E02D8081482FEA81FB81808186958695CF
:100E80008770282F30E081E090E0022E02C0880FAA
:100E9000991F0A94E2F7842B8C93898127960FB6C9
:100EA000F894DEBF0FBECDBFCF91DF910895DF93E1
:100EB000CF9300D000D000D0CDB7DEB79B838A831C
:100EC0006C8381E089838A819B81009711F4198268
:100ED0006FC08C81282F30E03E832D838D819E81D1
:100EE000009731F02D813E812130310591F160C0B4
:100EF000EA81FB8180818370882F90E0880F991FA1
:100F0000FC01EE55FF4FA081B181EA81FB81808118
:100F10008370882F90E0880F991FFC01EE55FF4FDA
:100F20000190F081E02D8081482FEA81FB81808152
:100F3000869586958770282F30E081E090E0022E1C
:100F400002C0880F991F0A94E2F7809584238C933E
:100F50002FC0EA81FB8180818370882F90E0880F09
:100F6000991FFC01EE55FF4FA081B181EA81FB8101
:100F700080818370882F90E0880F991FFC01EE55C7
:100F8000FF4F0190F081E02D8081482FEA81FB81A5
:100F90008081869586958770282F30E081E090E0EB
:100FA000022E02C0880F991F0A94E2F7842B8C93BB
:100FB000898126960FB6F894DEBF0FBECDBFCF91C4
:100FC000DF910895DF93CF9300D000D00F92CDB77B
:100FD000DEB79B838A837D836C8381E089838A81EA
:100FE0009B81009711F4198224C0EA81FB818081E2
:100FF0008370882F90E0880F991FFC01EE55FF4FFA
:101000000190F081E02D8081282F30E0EA81FB8182
:101010008081869586958770882F90E0A90102C00F
:10102000559547958A95E2F7CA018170EC81FD815B
:10103000808389810F900F900F900F900F90CF9128
:10104000DF910895DF93CF9300D000D000D0CDB7CB
:10105000DEB79B838A836C8381E089838A819B814D
:10106000009711F419826FC08C81282F30E03E83E5
:101070002D838D819E81009731F02D813E8121301D
:10108000310591F160C0EA81FB8180818370882FF6
:1010900090E0880F991FFC01E655FF4FA081B181B8
:1010A000EA81FB8180818370882F90E0880F991FEF
:1010B000FC01E655FF4F0190F081E02D8081482F23
:1010C000EA81FB818081869586958770282F30E0A4
:1010D00081E090E0022E02C0880F991F0A94E2F787
:1010E000809584238C932FC0EA81FB81808183705B
:1010F000882F90E0880F991FFC01E655FF4FA081D3
:10110000B181EA81FB8180818370882F90E0880F14
:10111000991FFC01E655FF4F0190F081E02D808181
:10112000482FEA81FB818081869586958770282FDC
:1011300030E081E090E0022E02C0880F991F0A94EF
:10114000E2F7842B8C93898126960FB6F894DEBF44
:101150000FBECDBFCF91DF910895DF93CF9300D025
:1011600000D00F92CDB7DEB79B838A837D836C83DB
:1011700081E089838A819B81009711F4198224C0C0
:10118000EA81FB8180818370882F90E0880F991F0E
:10119000FC01EE54FF4F0190F081E02D8081282F5B
:1011A00030E0EA81FB818081869586958770882F63
:1011B00090E0A90102C0559547958A95E2F7CA01CA
:1011C0008170EC81FD81808389810F900F900F9059
:1011D0000F900F90CF91DF910895DF93CF9300D0C0
:1011E0000F92CDB7DEB79B838A8381E089838A81A2
:1011F0009B81009711F419822FC0EA81FB818081C5
:101200008370882F90E0880F991FFC01E655FF4FEF
:10121000A081B181EA81FB8180818370882F90E079
:10122000880F991FFC01E655FF4F0190F081E02DDA
:101230008081482FEA81FB81808186958695877021
:10124000282F30E081E090E0022E02C0880F991F25
:101250000A94E2F784278C9389810F900F900F9066
:10126000CF91DF910895DF93CF9300D00F92CDB748
:10127000DEB78A836B8381E089838A81843010F0B2
:1012800019820DC08A81882F90E0880F991FFC0178
:10129000EE55FF4F0190F081E02D8B818083898195
:1012A0000F900F900F90CF91DF910895DF93CF9320
:1012B00000D000D0CDB7DEB78A837C836B8381E01A
:1012C00089838A81843010F019820FC08A81882F27
:1012D00090E0880F991FFC01EE55FF4F0190F081BF
:1012E000E02D8081EB81FC81808389810F900F90BC
:1012F0000F900F90CF91DF910895DF93CF9300D09F
:101300000F92CDB7DEB78A836B8381E089838A81B0
:10131000843010F019820DC08A81882F90E0880FE8
:10132000991FFC01E655FF4F0190F081E02D8B8164
:10133000808389810F900F900F90CF91DF91089556
:10134000DF93CF9300D000D0CDB7DEB78A837C8304
:101350006B8381E089838A81843010F019820FC009
:101360008A81882F90E0880F991FFC01E655FF4F76
:101370000190F081E02D8081EB81FC818083898167
:101380000F900F900F900F90CF91DF910895DF9302
:10139000CF9300D0CDB7DEB78A8381E089838A817D
:1013A000843010F0198218C08A81882F90E0880F4D
:1013B000991FFC01E655FF4FA081B1818A81882FDA
:1013C00090E0880F991FFC01E655FF4F0190F081D6
:1013D000E02D808180958C9389810F900F90CF9123
:1013E000DF910895DF93CF93CDB7DEB7E8970FB6BF
:1013F000F894DEBF0FBECDBF98AF8FAB81E08EAB50
:101400008FA998AD009711F41EAA13C21DAA8FA927
:1014100098AD61E00E9457078EAB8FA998AD0196F9
:1014200061E00E945707982F8EA989238EAB14C0C4
:101430008FA998AD9C012E5F3F4F8DA9882F90E01A
:10144000820F931F61E00E945707982F8EA989236E
:101450008EAB8DA98F5F8DAB8DA9843048F380E072
:1014600090E0A0EAB1E489AB9AABABABBCAB69A9A5
:101470007AA98BA99CA920E030E04AE755E40E94B4
:101480001F02DC01CB018DA79EA7AFA7B8AB6DA54E
:101490007EA58FA598A920E030E040E85FE30E9498
:1014A000250488232CF481E090E09CA78BA73FC003
:1014B0006DA57EA58FA598A920E03FEF4FE757E4E3
:1014C0000E94C50318164CF569A97AA98BA99CA995
:1014D00020E030E040E251E40E941F02DC01CB0139
:1014E000BC01CD010E944900DC01CB019CA78BA768
:1014F0000FC080E991E09AA789A789A59AA50197CD
:10150000F1F79AA789A78BA59CA501979CA78BA704
:101510008BA59CA5009769F714C06DA57EA58FA526
:1015200098A90E944900DC01CB019CA78BA78BA541
:101530009CA598A78FA38FA198A50197F1F798A7CD
:101540008FA38FA998AD63E30E943F0C982F8EA9BB
:1015500089238EAB8FA998AD62E30E943F0C982F30
:101560008EA989238EAB8FA998AD68E20E943F0CAB
:10157000982F8EA989238EAB80E090E0A0EAB0E49A
:101580008BA39CA3ADA3BEA36BA17CA18DA19EA1A7
:1015900020E030E04AE755E40E941F02DC01CB0165
:1015A0008F8F98A3A9A3BAA36F8D78A189A19AA1BF
:1015B00020E030E040E85FE30E94250488232CF41B
:1015C00081E090E09E8F8D8F3FC06F8D78A189A1C3
:1015D0009AA120E03FEF4FE757E40E94C503181699
:1015E0004CF56BA17CA18DA19EA120E030E040E2F2
:1015F00051E40E941F02DC01CB01BC01CD010E941D
:101600004900DC01CB019E8F8D8F0FC080E991E0F6
:101610009C8F8B8F8B8D9C8D0197F1F79C8F8B8F7F
:101620008D8D9E8D01979E8F8D8F8D8D9E8D0097B8
:1016300069F714C06F8D78A189A19AA10E94490011
:10164000DC01CB019E8F8D8F8D8D9E8D9A8F898F22
:10165000898D9A8D0197F1F79A8F898F8FA998AD0F
:1016600068E20E943F0C982F8EA989238EAB80E000
:1016700090E0A6E1B3E48D8B9E8BAF8BB88F6D8924
:101680007E898F89988D2BEA3AEA4AEA50E40E94D3
:101690001F02DC01CB01898B9A8BAB8BBC8B6989D8
:1016A0007A898B899C8920E030E040E85FE30E94E2
:1016B000250488231CF481E0888B91C069897A898C
:1016C0008B899C8920E030E04FE753E40E94C503FA
:1016D00018160CF07BC06D897E898F89988D20E06B
:1016E00030E04AE754E40E941903DC01CB018C8707
:1016F0009D87AE87BF876C857D858E859F8520E021
:1017000030E04AE755E40E941F02DC01CB018887E4
:101710009987AA87BB87688579858A859B8520E01C
:1017200030E040E85FE30E94250488232CF481E048
:1017300090E09F838E833FC0688579858A859B85ED
:1017400020E03FEF4FE757E40E94C50318164CF521
:101750006C857D858E859F8520E030E040E251E4F8
:101760000E941F02DC01CB01BC01CD010E94490097
:10177000DC01CB019F838E830FC080E991E09D83C4
:101780008C838C819D810197F1F79D838C838E8161
:101790009F8101979F838E838E819F81009769F738
:1017A00024C0688579858A859B850E944900DC0173
:1017B000CB019F838E838E819F819B838A838A81C5
:1017C0009B810197F1F79B838A830FC069897A898E
:1017D0008B899C890E944900DC01CB01888B888918
:1017E000898389818A95F1F789838FA998AD68E209
:1017F0000E943F0C982F8EA989238EAB8FA998AD9C
:101800006CE00E943F0C982F8EA989238EAB8FA984
:1018100098AD66E00E943F0C982F8EA989238EAB6D
:101820008FA998AD61E00E943F0C982F8EA9892363
:101830008EAB8EA9E8960FB6F894DEBF0FBECDBF73
:10184000CF91DF910895DF93CF9300D00F92CDB762
:10185000DEB79B838A8381E089838A819B8100979D
:1018600011F4198205C08A819B8161E00E943F0CBE
:1018700089810F900F900F90CF91DF910895DF93A2
:10188000CF93CDB7DEB762970FB6F894DEBF0FBE29
:10189000CDBF998B888B6A8B81E08F8788899989E6
:1018A000009711F41F86A1C08889998960E00E9481
:1018B0002208982F8F8589238F878A89282F229540
:1018C0002F7088899989622F0E940316982F8F851F
:1018D00089238F87888999890E945616982F8F852A
:1018E00089238F87888999896A890E940316982F8E
:1018F0008F8589238F87888999890E945616982F0A
:101900008F8589238F8780E090E0A0E0B0E48B870B
:101910009C87AD87BE876B857C858D859E8520E005
:1019200030E04AE755E40E941F02DC01CB018F83BF
:101930009887A987BA876F81788589859A8520E0FD
:1019400030E040E85FE30E94250488232CF481E026
:1019500090E09E838D833FC06F81788589859A85CD
:1019600020E03FEF4FE757E40E94C50318164CF5FF
:101970006B857C858D859E8520E030E040E251E4DA
:101980000E941F02DC01CB01BC01CD010E94490075
:10199000DC01CB019E838D830FC080E991E09C83A5
:1019A0008B838B819C810197F1F79C838B838D8145
:1019B0009E8101979E838D838D819E81009769F71B
:1019C00014C06F81788589859A850E944900DC0161
:1019D000CB019E838D838D819E819A8389838981AA
:1019E0009A810197F1F79A8389838F8562960FB662
:1019F000F894DEBF0FBECDBFCF91DF910895DF9386
:101A0000CF93CDB7DEB762970FB6F894DEBF0FBEA7
:101A1000CDBF998B888B6A8B81E08F878889998964
:101A2000009711F41F86A1C08889998961E00E94FE
:101A30002208982F8F8589238F878A89282F2295BE
:101A40002F7088899989622F0E940316982F8F859D
:101A500089238F87888999890E945616982F8F85A8
:101A600089238F87888999896A890E940316982F0C
:101A70008F8589238F87888999890E945616982F88
:101A80008F8589238F8780E090E0A0E0B0E48B878A
:101A90009C87AD87BE876B857C858D859E8520E084
:101AA00030E04AE755E40E941F02DC01CB018F833E
:101AB0009887A987BA876F81788589859A8520E07C
:101AC00030E040E85FE30E94250488232CF481E0A5
:101AD00090E09E838D833FC06F81788589859A854C
:101AE00020E03FEF4FE757E40E94C50318164CF57E
:101AF0006B857C858D859E8520E030E040E251E459
:101B00000E941F02DC01CB01BC01CD010E944900F3
:101B1000DC01CB019E838D830FC080E991E09C8323
:101B20008B838B819C810197F1F79C838B838D81C3
:101B30009E8101979E838D838D819E81009769F799
:101B400014C06F81788589859A850E944900DC01DF
:101B5000CB019E838D838D819E819A838983898128
:101B60009A810197F1F79A8389838F8562960FB6E0
:101B7000F894DEBF0FBECDBFCF91DF910895DF9304
:101B8000CF93CDB7DEB764970FB6F894DEBF0FBE24
:101B9000CDBF998B888B6A8B4B8B2C8B81E08F8789
:101BA00088899989009711F41F86A7C08889998927
:101BB0006A894B890E9413158889998961E00E947E
:101BC0002208982F8F8589238F878C89282F22952B
:101BD0002F7088899989622F0E940316982F8F850C
:101BE00089238F87888999890E945616982F8F8517
:101BF00089238F87888999896C890E940316982F79
:101C00008F8589238F87888999890E945616982FF6
:101C10008F8589238F8780E090E0A0E0B0E48B87F8
:101C20009C87AD87BE876B857C858D859E8520E0F2
:101C300030E04AE755E40E941F02DC01CB018F83AC
:101C40009887A987BA876F81788589859A8520E0EA
:101C500030E040E85FE30E94250488232CF481E013
:101C600090E09E838D833FC06F81788589859A85BA
:101C700020E03FEF4FE757E40E94C50318164CF5EC
:101C80006B857C858D859E8520E030E040E251E4C7
:101C90000E941F02DC01CB01BC01CD010E94490062
:101CA000DC01CB019E838D830FC080E991E09C8392
:101CB0008B838B819C810197F1F79C838B838D8132
:101CC0009E8101979E838D838D819E81009769F708
:101CD00014C06F81788589859A850E944900DC014E
:101CE000CB019E838D838D819E819A838983898197
:101CF0009A810197F1F79A8389838F8564960FB64D
:101D0000F894DEBF0FBECDBFCF91DF910895DF9372
:101D1000CF9300D000D00F92CDB7DEB79B838A83DC
:101D20007D836C8381E089838A819B81009721F088
:101D30008C819D81009779F4198212C0EC81FD811C
:101D400020818C819D8101969D838C838A819B81DA
:101D5000622F0E94FF0CEC81FD818081882371F746
:101D600089810F900F900F900F900F90CF91DF917E
:101D70000895DF93CF93CDB7DEB727970FB6F894CA
:101D8000DEBF0FBECDBF9B838A836C834D833F83B1
:101D90002E8381E089838A819B81009721F08E8147
:101DA0009F81009711F419821DC08A819B816C81EB
:101DB0004D810E941315982F8981892389830DC035
:101DC000EE81FF8120818E819F8101969F838E838A
:101DD0008A819B81622F0E94FF0CEE81FF818081AE
:101DE000882371F7898127960FB6F894DEBF0FBE5E
:101DF000CDBFCF91DF9108950F93DF93CF93CDB7F0
:101E0000DEB729970FB6F894DEBF0FBECDBF9C8317
:101E10008B837E836D834F832887098781E08A8344
:101E20008B819C81009711F41A8236C08985882F96
:101E300090E00896880F991F880F991F880F991FA7
:101E4000282F8B819C81622F0E943F0C8A831982EC
:101E500015C08981282F30E08D819E81FC01E20F21
:101E6000F31F20818B819C81622F0E94FF0C982F91
:101E70008A8189238A8389818F5F898389818830D8
:101E800040F38B819C816F81488529850E94BF0D1D
:101E9000982F8A8189238A838A8129960FB6F8949C
:101EA000DEBF0FBECDBFCF91DF910F910895DF93BD
:101EB000CF93CDB7DEB763970FB6F894DEBF0FBEF2
:101EC000CDBF9F878E87488B598B6A8B7B8B81E038
:101ED00089838E859F85009711F4198219C088899E
:101EE0009989AA89BB899E012E5F3F4FBC01CD0114
:101EF000A9010E942A1889838E859F859E012E5FE5
:101F00003F4FB9010E94870E982F898189238983C9
:101F1000898163960FB6F894DEBF0FBECDBFCF9117
:101F2000DF910895DF93CF93CDB7DEB7E8970FB673
:101F3000F894DEBF0FBECDBF98AF8FAB81E08EAB04
:101F40008FA998AD009711F41EAA01C28FA998AD70
:101F500061E00E9457078EAB8FA998AD019661E0B2
:101F60000E945707982F8EA989238EAB1DAA14C0F3
:101F70008FA998AD9C012E5F3F4F8DA9882F90E0CF
:101F8000820F931F61E00E945707982F8EA9892323
:101F90008EAB8DA98F5F8DAB8DA9883048F380E023
:101FA00090E0A0EAB1E489AB9AABABABBCAB69A95A
:101FB0007AA98BA99CA920E030E04AE755E40E9469
:101FC0001F02DC01CB018DA79EA7AFA7B8AB6DA503
:101FD0007EA58FA598A920E030E040E85FE30E944D
:101FE000250488232CF481E090E09CA78BA73FC0B8
:101FF0006DA57EA58FA598A920E03FEF4FE757E498
:102000000E94C50318164CF569A97AA98BA99CA949
:1020100020E030E040E251E40E941F02DC01CB01ED
:10202000BC01CD010E944900DC01CB019CA78BA71C
:102030000FC080E991E09AA789A789A59AA5019781
:10204000F1F79AA789A78BA59CA501979CA78BA7B9
:102050008BA59CA5009769F714C06DA57EA58FA5DB
:1020600098A90E944900DC01CB019CA78BA78BA5F6
:102070009CA598A78FA38FA198A50197F1F798A782
:102080008FA38FA998AD68E30E94CD11982F8EA9D8
:1020900089238EAB80E090E0A0EAB0E48BA39CA300
:1020A000ADA3BEA36BA17CA18DA19EA120E030E0D9
:1020B0004AE755E40E941F02DC01CB018F8F98A3F1
:1020C000A9A3BAA36F8D78A189A19AA120E030E0DD
:1020D00040E85FE30E94250488232CF481E090E02F
:1020E0009E8F8D8F3FC06F8D78A189A19AA120E02E
:1020F0003FEF4FE757E40E94C50318164CF56BA15C
:102100007CA18DA19EA120E030E040E251E40E943C
:102110001F02DC01CB01BC01CD010E944900DC01A2
:10212000CB019E8F8D8F0FC080E991E09C8F8B8FAC
:102130008B8D9C8D0197F1F79C8F8B8F8D8D9E8D54
:1021400001979E8F8D8F8D8D9E8D009769F714C09E
:102150006F8D78A189A19AA10E944900DC01CB0171
:102160009E8F8D8F8D8D9E8D9A8F898F898D9A8D63
:102170000197F1F79A8F898F8FA998AD68E30E9434
:10218000CD11982F8EA989238EAB80E090E0A6E137
:10219000B3E48D8B9E8BAF8BB88F6D897E898F89D1
:1021A000988D2BEA3AEA4AEA50E40E941F02DC01C9
:1021B000CB01898B9A8BAB8BBC8B69897A898B8994
:1021C0009C8920E030E040E85FE30E9425048823FA
:1021D0001CF481E0888B91C069897A898B899C89FC
:1021E00020E030E04FE753E40E94C50318160CF0DE
:1021F0007BC06D897E898F89988D20E030E04AE729
:1022000054E40E941903DC01CB018C879D87AE87C3
:10221000BF876C857D858E859F8520E030E04AE70D
:1022200055E40E941F02DC01CB0188879987AA87A9
:10223000BB87688579858A859B8520E030E040E80A
:102240005FE30E94250488232CF481E090E09F83C3
:102250008E833FC0688579858A859B8520E03FEF26
:102260004FE757E40E94C50318164CF56C857D8531
:102270008E859F8520E030E040E251E40E941F02FD
:10228000DC01CB01BC01CD010E944900DC01CB0186
:102290009F838E830FC080E991E09D838C838C8126
:1022A0009D810197F1F79D838C838E819F8101979A
:1022B0009F838E838E819F81009769F724C06885F4
:1022C00079858A859B850E944900DC01CB019F832B
:1022D0008E838E819F819B838A838A819B810197D4
:1022E000F1F79B838A830FC069897A898B899C89DE
:1022F0000E944900DC01CB01888B88898983898110
:102300008A95F1F789838FA998AD68E30E94CD1172
:10231000982F8EA989238EAB8FA998AD61E00E947A
:10232000CD11982F8EA989238EAB8FA998AD66E029
:102330000E94CD11982F8EA989238EAB8FA998ADBD
:102340006CE00E94CD11982F8EA989238EAB8EA9A7
:10235000E8960FB6F894DEBF0FBECDBFCF91DF91E8
:102360000895DF93CF9300D00F92CDB7DEB79B8354
:102370008A8381E089838A819B81009711F4198285
:1023800005C08A819B8161E00E94CD1189810F90F7
:102390000F900F90CF91DF910895DF93CF93CDB73A
:1023A000DEB763970FB6F894DEBF0FBECDBF9A8B32
:1023B000898B6B8B81E0888B89899A89009711F4CE
:1023C000188AA9C089899A8960E00E942208982FFA
:1023D00088898923888B1F8625C089899A899C01D1
:1023E0002E5F3F4F8F85882F90E0A901480F591F1E
:1023F0008B89282F30E08F85882F90E0B90102C0AB
:10240000759567958A95E2F7CB01282F2170CA014F
:10241000622F0E942208982F88898923888B8F85B4
:102420008F5F8F878F858830C0F289899A890E9453
:10243000401780E090E0A0E0B0E48B879C87AD87F8
:10244000BE876B857C858D859E8520E030E04AE7E0
:1024500055E40E941F02DC01CB018F839887A98776
:10246000BA876F81788589859A8520E030E040E8D9
:102470005FE30E94250488232CF481E090E09E8392
:102480008D833FC06F81788589859A8520E03FEFF5
:102490004FE757E40E94C50318164CF56B857C8501
:1024A0008D859E8520E030E040E251E40E941F02CD
:1024B000DC01CB01BC01CD010E944900DC01CB0154
:1024C0009E838D830FC080E991E09C838B838B81F9
:1024D0009C810197F1F79C838B838D819E8101976D
:1024E0009E838D838D819E81009769F714C06F81D3
:1024F000788589859A850E944900DC01CB019E83FD
:102500008D838D819E819A83898389819A810197A8
:10251000F1F79A838983888963960FB6F894DEBFB2
:102520000FBECDBFCF91DF910895DF93CF93CDB78D
:10253000DEB763970FB6F894DEBF0FBECDBF9A8BA0
:10254000898B6B8B81E0888B89899A89009711F43C
:10255000188AA9C089899A8961E00E942208982F67
:1025600088898923888B1F8625C089899A899C013F
:102570002E5F3F4F8F85882F90E0A901480F591F8C
:102580008B89282F30E08F85882F90E0B90102C019
:10259000759567958A95E2F7CB01282F2170CA01BE
:1025A000622F0E942208982F88898923888B8F8523
:1025B0008F5F8F878F858830C0F289899A890E94C2
:1025C000401780E090E0A0E0B0E48B879C87AD8767
:1025D000BE876B857C858D859E8520E030E04AE74F
:1025E00055E40E941F02DC01CB018F839887A987E5
:1025F000BA876F81788589859A8520E030E040E848
:102600005FE30E94250488232CF481E090E09E8300
:102610008D833FC06F81788589859A8520E03FEF63
:102620004FE757E40E94C50318164CF56B857C856F
:102630008D859E8520E030E040E251E40E941F023B
:10264000DC01CB01BC01CD010E944900DC01CB01C2
:102650009E838D830FC080E991E09C838B838B8167
:102660009C810197F1F79C838B838D819E810197DB
:102670009E838D838D819E81009769F714C06F8141
:10268000788589859A850E944900DC01CB019E836B
:102690008D838D819E819A83898389819A81019717
:1026A000F1F79A838983888963960FB6F894DEBF21
:1026B0000FBECDBFCF91DF910895DF93CF93CDB7FC
:1026C000DEB764970FB6F894DEBF0FBECDBF998B0F
:1026D000888B6A8B4B8B2C8B81E08F8788899989BB
:1026E000009711F41F868AC0888999896A894B8965
:1026F0000E948B158889998961E00E942208982F91
:102700008F8589238F87888999896C890E94951282
:10271000982F8F8589238F8780E090E0A0E0B0E438
:102720008B879C87AD87BE876B857C858D859E85D5
:1027300020E030E04AE755E40E941F02DC01CB01B3
:102740008F839887A987BA876F81788589859A85CD
:1027500020E030E040E85FE30E94250488232CF469
:1027600081E090E09E838D833FC06F81788589856D
:102770009A8520E03FEF4FE757E40E94C503181603
:102780004CF56B857C858D859E8520E030E040E2B0
:1027900051E40E941F02DC01CB01BC01CD010E946B
:1027A0004900DC01CB019E838D830FC080E991E05D
:1027B0009C838B838B819C810197F1F79C838B8316
:1027C0008D819E8101979E838D838D819E8100974F
:1027D00069F714C06F81788589859A850E944900C0
:1027E000DC01CB019E838D838D819E819A838983B9
:1027F00089819A810197F1F79A8389838F856496FD
:102800000FB6F894DEBF0FBECDBFCF91DF91089514
:10281000DF93CF9300D000D00F92CDB7DEB79B836C
:102820008A837D836C8381E089838A819B81009781
:1028300021F08C819D81009779F4198212C0EC817E
:10284000FD8120818C819D8101969D838C838A816D
:102850009B81622F0E949512EC81FD8180818823EB
:1028600071F789810F900F900F900F900F90CF917B
:10287000DF910895DF93CF93CDB7DEB727970FB6DB
:10288000F894DEBF0FBECDBF9B838A836C834D83DC
:102890003F832E8381E089838A819B81009721F089
:1028A0008E819F81009711F419821DC08A819B81BE
:1028B0006C814D810E948B15982F89818923898392
:1028C0000DC0EE81FF8120818E819F8101969F83C3
:1028D0008E838A819B81622F0E949512EE81FF81F7
:1028E0008081882371F7898127960FB6F894DEBF1F
:1028F0000FBECDBFCF91DF9108950F93DF93CF939C
:10290000CDB7DEB729970FB6F894DEBF0FBECDBFA7
:102910009C838B837E836D834F832887098781E027
:102920008A838B819C81009711F41A8236C0898535
:10293000882F90E00896880F991F880F991F880F9D
:10294000991F282F8B819C81622F0E94CD118A8331
:10295000198215C08981282F30E08D819E81FC016C
:10296000E20FF31F20818B819C81622F0E949512C0
:10297000982F8A8189238A8389818F5F89838981BE
:10298000883040F38B819C816F81488529850E9426
:102990005D13982F8A8189238A838A8129960FB6AD
:1029A000F894DEBF0FBECDBFCF91DF910F91089598
:1029B000DF93CF93CDB7DEB763970FB6F894DEBF42
:1029C0000FBECDBF9F878E87488B598B6A8B7B8BC1
:1029D00081E089838E859F85009711F4198219C043
:1029E00088899989AA89BB899E012E5F3F4FBC01C6
:1029F000CD01A9010E942A1889838E859F859E0199
:102A00002E5F3F4FB9010E940814982F89818923B6
:102A10008983898163960FB6F894DEBF0FBECDBF60
:102A2000CF91DF910895DF93CF93CDB7DEB727978E
:102A30000FB6F894DEBF0FBECDBF9B838A836C8335
:102A40004D8381E089838A819B81009711F41982EB
:102A500058C08D8181508D838C81282F30E03F8339
:102A60002E838E819F818230910519F12E813F81C5
:102A70002330310534F48E819F818130910561F0DE
:102A80003FC02E813F812330310501F18E819F812E
:102A90008430910541F134C08D81282F20588A81DE
:102AA0009B81622F0E943F0C982F89818923898303
:102AB00028C08D81282F20548A819B81622F0E94FB
:102AC0003F0C982F8981892389831BC08D81282FF2
:102AD0002C568A819B81622F0E943F0C982F8981FE
:102AE000892389830EC08D81282F2C528A819B8156
:102AF000622F0E943F0C982F89818923898301C00E
:102B00001982898127960FB6F894DEBF0FBECDBF1C
:102B1000CF91DF910895DF93CF93CDB7DEB727979D
:102B20000FB6F894DEBF0FBECDBF9B838A836C8344
:102B30004D8381E089838A819B81009711F41982FA
:102B400058C08D8181508D838C81282F30E03F8348
:102B50002E838E819F818230910519F12E813F81D4
:102B60002330310534F48E819F818130910561F0ED
:102B70003FC02E813F812330310501F18E819F813D
:102B80008430910541F134C08D81282F20588A81ED
:102B90009B81622F0E94CD11982F8981892389837F
:102BA00028C08D81282F20548A819B81622F0E940A
:102BB000CD11982F8981892389831BC08D81282F6E
:102BC0002C568A819B81622F0E94CD11982F89817A
:102BD000892389830EC08D81282F2C528A819B8165
:102BE000622F0E94CD11982F89818923898301C08A
:102BF0001982898127960FB6F894DEBF0FBECDBF2C
:102C0000CF91DF910895DF93CF9300D000D0CDB75F
:102C1000DEB79B838A836C8381E089838A819B8171
:102C2000009711F419823AC08A819B819C012E5F22
:102C30003F4F8C81482F4170C901642F0E942208A8
:102C400089838A819B819C012D5F3F4F8C81869572
:102C5000482F4170C901642F0E94220889838A810C
:102C60009B819C012C5F3F4F8C8186958695482FD8
:102C70004170C901642F0E94220889838A819B8147
:102C80009C012B5F3F4F8C81869586958695482FBA
:102C90004170C901642F0E942208898389810F90A5
:102CA0000F900F900F90CF91DF910895DF93CF9306
:102CB000CDB7DEB76B970FB6F894DEBF0FBECDBFB2
:102CC0009B8F8A8F81E0898F8A8D9B8D009711F46D
:102CD000198ECCC08A8D9B8D019661E00E942208DE
:102CE000898F80E090E0A0E8BFE38D8B9E8BAF8B57
:102CF000B88F6D897E898F89988D2BEA3AEA4AEAE6
:102D000050E40E941F02DC01CB01898B9A8BAB8BB4
:102D1000BC8B69897A898B899C8920E030E040E806
:102D20005FE30E94250488231CF481E0888B91C016
:102D300069897A898B899C8920E030E04FE753E4E8
:102D40000E94C50318160CF07BC06D897E898F899F
:102D5000988D20E030E04AE754E40E941903DC013A
:102D6000CB018C879D87AE87BF876C857D858E85DF
:102D70009F8520E030E04AE755E40E941F02DC0115
:102D8000CB0188879987AA87BB87688579858A85DB
:102D90009B8520E030E040E85FE30E942504882323
:102DA0002CF481E090E09F838E833FC06885798515
:102DB0008A859B8520E03FEF4FE757E40E94C503DB
:102DC00018164CF56C857D858E859F8520E030E05A
:102DD00040E251E40E941F02DC01CB01BC01CD01A5
:102DE0000E944900DC01CB019F838E830FC080E9E4
:102DF00091E09D838C838C819D810197F1F79D8368
:102E00008C838E819F8101979F838E838E819F818A
:102E1000009769F724C0688579858A859B850E941B
:102E20004900DC01CB019F838E838E819F819B8330
:102E30008A838A819B810197F1F79B838A830FC0E4
:102E400069897A898B899C890E944900DC01CB01C0
:102E5000888B8889898389818A95F1F789838A8D0E
:102E60009B8D019660E00E942208898F898D6B9668
:102E70000FB6F894DEBF0FBECDBFCF91DF9108959E
:102E8000DF93CF93CDB7DEB76B970FB6F894DEBF65
:102E90000FBECDBF9B8F8A8F81E0898F8A8D9B8DDE
:102EA000009711F4198ECCC08A8D9B8D019661E03C
:102EB0000E942208898F80E090E0A0E8BFE38D8B1C
:102EC0009E8BAF8BB88F6D897E898F89988D2BEA09
:102ED0003AEA4AEA50E40E941F02DC01CB01898BE6
:102EE0009A8BAB8BBC8B69897A898B899C8920E012
:102EF00030E040E85FE30E94250488231CF481E071
:102F0000888B91C069897A898B899C8920E030E01F
:102F10004FE753E40E94C50318160CF07BC06D897F
:102F20007E898F89988D20E030E04AE754E40E9442
:102F30001903DC01CB018C879D87AE87BF876C8529
:102F40007D858E859F8520E030E04AE755E40E942C
:102F50001F02DC01CB0188879987AA87BB87688518
:102F600079858A859B8520E030E040E85FE30E9418
:102F7000250488232CF481E090E09F838E833FC05A
:102F8000688579858A859B8520E03FEF4FE757E488
:102F90000E94C50318164CF56C857D858E859F852E
:102FA00020E030E040E251E40E941F02DC01CB014E
:102FB000BC01CD010E944900DC01CB019F838E83BF
:102FC0000FC080E991E09D838C838C819D81019766
:102FD000F1F79D838C838E819F8101979F838E83E0
:102FE0008E819F81009769F724C0688579858A85DD
:102FF0009B850E944900DC01CB019F838E838E81DB
:103000009F819B838A838A819B810197F1F79B83B0
:103010008A830FC069897A898B899C890E944900BB
:10302000DC01CB01888B8889898389818A95F1F7B6
:1030300089838A8D9B8D019660E00E942208898F8A
:10304000898D6B960FB6F894DEBF0FBECDBFCF91C2
:10305000DF910895DF93CF93CDB7DEB727970FB6F3
:10306000F894DEBF0FBECDBF6A837B838C839D83C4
:103070005F834E8381E089838E819F81009711F465
:10308000198225C08DB79EB708970FB6F8949EBFDA
:103090000FBE8DBFEDB7FEB731968E819F819183B4
:1030A000808380E690E0938382838A819B81AC81D8
:1030B000BD8184839583A683B7830E94DB238DB76C
:1030C0009EB708960FB6F8949EBF0FBE8DBF89813C
:1030D00027960FB6F894DEBF0FBECDBFCF91DF911C
:1030E0000895DF93CF9300D000D00F92CDB7DEB715
:1030F0009D838C8381E08B838C819D81009711F46B
:103100001B8231C01A8219820FC02C813D818981B6
:103110009A81820F931F61E00E9457078B838981F8
:103120009A8101969A83898389819A818430910555
:1031300064F31A82198212C08C819D819C012C5FDC
:103140003F4F89819A81820F931F60E00E94570749
:103150008B8389819A8101969A83898389819A8157
:10316000843091054CF38B810F900F900F900F904E
:103170000F90CF91DF910895DF93CF93CDB7DEB756
:1031800067970FB6F894DEBF0FBECDBF9D8B8C8BBB
:103190007F8B6E8B81E08A8B8C899D89009711F4DF
:1031A0001A8AE4C01F86198A0EC02C893D89898934
:1031B000882F90E0820F931F61E00E9422088A8B83
:1031C00089898F5F898B8989843078F3198ACAC08D
:1031D0002C893D898989882F90E0820F931F60E0B8
:1031E0000E942208982F8A8989238A8B80E090E0A8
:1031F000A0E0B0E48B879C87AD87BE876B857C851C
:103200008D859E8520E030E04AE755E40E941F024C
:10321000DC01CB018F839887A987BA876F81788576
:1032200089859A8520E030E040E85FE30E9425042C
:1032300088232CF481E090E09E838D833FC06F81D2
:10324000788589859A8520E03FEF4FE757E40E9413
:10325000C50318164CF56B857C858D859E8520E011
:1032600030E040E251E40E941F02DC01CB01BC01CE
:10327000CD010E944900DC01CB019E838D830FC0EC
:1032800080E991E09C838B838B819C810197F1F78E
:103290009C838B838D819E8101979E838D838D81FD
:1032A0009E81009769F714C06F81788589859A851A
:1032B0000E944900DC01CB019E838D838D819E811C
:1032C0009A83898389819A810197F1F79A83898307
:1032D000188A31C08C899D899C012C5F3F4F888959
:1032E000882F90E0820F931F9E012D5E3F4FB90102
:1032F0000E94AD08982F8A8989238A8B8B8988231D
:10330000B9F48989482F50E08889282F30E0CA0114
:10331000880F991F880F991F820F931FFC01E65495
:10332000FF4F8081EE89FF89808381E08F8706C00F
:1033300088898F5F888B8889843060F22C893D89E9
:103340008989882F90E0820F931F61E00E942208F4
:10335000982F8A8989238A8B8F85813039F08989D2
:103360008F5F898B8989843008F432CF8A89679688
:103370000FB6F894DEBF0FBECDBFCF91DF91089599
:10338000DF93CF93CDB7DEB78AEC90E00E94F209CD
:1033900080ED90E00E947118CF91DF910895EF9237
:1033A000FF920F931F93DF93CF93CDB7DEB7CD5C22
:1033B000D0400FB6F894DEBF0FBECDBF8091E800BD
:1033C000882F90E09C0128523F4F80ED90E0B9019A
:1033D0000E94BC188091E800882F90E0FC01E85220
:1033E000FF4F8081882311F40C9426238091E800FC
:1033F000882F90E0FC01E852FF4F80818336E1F492
:103400001092E8000DC08091E800882F90E0FC0148
:10341000E852FF4F10828091E8008F5F8093E800B0
:103420008091E800803178F31092E8008AEC90E017
:103430000E94230C0C94AC228091E800882F90E02D
:10344000FC01E852FF4F80818D3309F0F7C68AEC0A
:1034500090E00E94230CFE01E655FF4F1082FE0112
:10346000E555FF4F1082C0C4FE01E555FF4F808136
:10347000882F90E0FC01E852FF4F80818F3229F1C4
:10348000FE01E555FF4F8081882F90E0FC01E85256
:10349000FF4F80818A32C9F0FE01E555FF4F8081E0
:1034A000882F90E0FC01E852FF4F80818D3269F057
:1034B000FE01E555FF4F8081882F90E0FC01E85226
:1034C000FF4F80818B3209F086C4FE01E755FF4F24
:1034D0001082FE01E955FF4F1082FE01E555FF4FB6
:1034E0008081882F90E0DE01A755BF4FFC01E85294
:1034F000FF4F80818C93FE01E655FF4F81E0808372
:103500008AEC90E023E630E062E041E00E94B90EF0
:103510008AEC90E0FE01E755FF4F62E04BE020812E
:103520000E94BF0DFE01E855FF4F108220C0FE0132
:10353000E855FF4F8081482F50E0FE01E855FF4FCE
:103540008081882F90E0FC01E852FF4F2081CE015E
:1035500084559F4FFC01E40FF51F2083DE01A85521
:10356000BF4FFE01E855FF4F80818F5F8C93FE01B6
:10357000E855FF4FDE01A555BF4F90818C919817FC
:10358000B0F2DE01A855BF4FFE01E555FF4F808127
:103590008F5F8C932BC0FE01E855FF4F8081282F51
:1035A00030E0FE01E555FF4F8081882F90E0809547
:1035B0009095A901480F591FFE01E855FF4F8081E2
:1035C000882F90E0FC01E852FF4F2081CE01845407
:1035D0009F4FFC01E40FF51F2083DE01A855BF4F6C
:1035E000FE01E855FF4F80818F5F8C93FE01E85507
:1035F000FF4F8081882F90E0FC01E852FF4F8081CF
:10360000882349F6CE0184559F4F0E94B523FE01C1
:10361000ED55FF4FAA2797FDA095BA2F8083918380
:10362000A283B383CE0184549F4F0E94B523FE0131
:10363000E156FF4FAA2797FDA095BA2F808391836B
:10364000A283B383FE01E755FF4F8081E82EFF245C
:10365000C453DF4FF982E882CC5CD040C453DF4FC3
:1036600008811981CC5CD0400B32110509F4A6C247
:10367000C453DF4F28813981CC5CD0402C323105D6
:1036800054F4C453DF4F88819981CC5CD0408A3296
:103690009105A9F0CEC2C453DF4FE881F981CC5C1B
:1036A000D040ED32F10509F4A5C2C453DF4F0881C3
:1036B0001981CC5CD0400F321105F9F0BAC28E01ED
:1036C00005561F4FFE01ED55FF4F9E0121563F4FFE
:1036D00080819181A281B381F90120813181428170
:1036E0005381BC01CD010E943D23DC01CB01F801D7
:1036F00080839183A283B3839CC2FE01E156FF4F76
:1037000080819181A281B3810097A105B10509F063
:1037100037C28AEC90E02EE630E062E041E00E94A1
:10372000B90EFE01E956FF4F80E090E0AAEFB3E446
:1037300080839183A283B3838E010D561F4FFE01B8
:10374000E956FF4F608171818281938120E030E0F2
:103750004AE755E40E941F02DC01CB01F801808397
:103760009183A283B383FE01ED56FF4F6081718187
:103770008281938120E030E040E85FE30E942504ED
:10378000882344F4FE01EF56FF4F81E090E09183DF
:10379000808364C0FE01ED56FF4F6081718182819C
:1037A000938120E03FEF4FE757E40E94C5031816CE
:1037B0000CF043C0FE01E956FF4F608171818281A8
:1037C000938120E030E040E251E40E941F02DC01DE
:1037D000CB018E010F561F4FBC01CD010E94490045
:1037E000DC01CB01F801918380831FC0FE01E1570A
:1037F000FF4F80E991E091838083FE01E157FF4F05
:10380000808191810197F1F7FE01E157FF4F91838C
:103810008083DE01AF56BF4FFE01EF56FF4F808120
:103820009181019711969C938E93FE01EF56FF4F65
:10383000808191810097D1F627C08E010F561F4FCE
:10384000FE01ED56FF4F60817181828193810E945C
:103850004900DC01CB01F80191838083DE01A3578D
:10386000BF4FFE01EF56FF4F808191818D939C9356
:10387000FE01E357FF4F808191810197F1F7FE012F
:10388000E357FF4F918380838AEC90E00E94230CE2
:10389000FE01E757FF4F80E090E0AAEFB3E480839A
:1038A0009183A283B3838E010B571F4FFE01E7570D
:1038B000FF4F608171818281938120E030E04AE78F
:1038C00055E40E941F02DC01CB01F8018083918343
:1038D000A283B383FE01EB57FF4F60817181828128
:1038E000938120E030E040E85FE30E9425048823D4
:1038F00044F4FE01ED57FF4F81E090E09183808317
:1039000064C0FE01EB57FF4F60817181828193811A
:1039100020E03FEF4FE757E40E94C50318160CF074
:1039200043C0FE01E757FF4F60817181828193811F
:1039300020E030E040E251E40E941F02DC01CB01B4
:103940008E010D571F4FBC01CD010E944900DC01C3
:10395000CB01F801918380831FC0FE01EF57FF4F19
:1039600080E991E091838083FE01EF57FF4F8081D2
:1039700091810197F1F7FE01EF57FF4F918380830B
:10398000DE01AD57BF4FFE01ED57FF4F80819181A2
:10399000019711969C938E93FE01ED57FF4F808106
:1039A00091810097D1F627C08E010D571F4FFE0160
:1039B000EB57FF4F60817181828193810E944900A2
:1039C000DC01CB01F80191838083DE01A158BF4F58
:1039D000FE01ED57FF4F808191818D939C93FE01F5
:1039E000E158FF4F808191810197F1F7FE01E15885
:1039F000FF4F918380838AEC90E02EE630E062E016
:103A000041E00E94B90EFE01E558FF4F80E090E0D2
:103A1000AAEFB3E480839183A283B3838E01095814
:103A20001F4FFE01E558FF4F6081718182819381B4
:103A300020E030E04AE755E40E941F02DC01CB01A0
:103A4000F80180839183A283B383FE01E958FF4F7D
:103A5000608171818281938120E030E040E85FE302
:103A60000E942504882344F4FE01EB58FF4F81E0B7
:103A700090E09183808364C0FE01E958FF4F60812C
:103A800071818281938120E03FEF4FE757E40E94EC
:103A9000C50318160CF043C0FE01E558FF4F6081C6
:103AA00071818281938120E030E040E251E40E9404
:103AB0001F02DC01CB018E010B581F4FBC01CD0151
:103AC0000E944900DC01CB01F801918380831FC073
:103AD000FE01ED58FF4F80E991E091838083FE0164
:103AE000ED58FF4F808191810197F1F7FE01ED586C
:103AF000FF4F91838083DE01AB58BF4FFE01EB582F
:103B0000FF4F80819181019711969C938E93FE01C6
:103B1000EB58FF4F808191810097D1F627C08E012D
:103B20000B581F4FFE01E958FF4F60817181828160
:103B300093810E944900DC01CB01F80191838083CD
:103B4000DE01AF58BF4FFE01EB58FF4F80819181DE
:103B50008D939C93FE01EF58FF4F808191810197D7
:103B6000F1F7FE01EF58FF4F918380838AEC90E0DC
:103B70000E94230CFE01E955FF4F81E0808359C06C
:103B80008E0105561F4FFE01ED55FF4F9E01215638
:103B90003F4F80819181A281B381F90120813181E0
:103BA00042815381BC01CD010E945C23DA01C9012D
:103BB000F80180839183A283B3833BC0BE01655625
:103BC0007F4FFE01ED55FF4FDE01A156BF4F208113
:103BD0003181428153818D919D910D90BC91A02D99
:103BE000820F931FA41FB51FFB0180839183A283C3
:103BF000B3831FC0BE0165567F4FFE01ED55FF4FD9
:103C0000DE01A156BF4F20813181428153818D91C8
:103C10009D910D90BC91A02D79018A01E81AF90AB5
:103C20000A0B1B0BD801C701FB0180839183A28380
:103C3000B383FE01E955FF4F8081813009F4DDC077
:103C40008AEC90E061E041E00E9413158AEC90E07C
:103C5000FE01E556FF4F2081318142815381BA0137
:103C6000A9010E94570FFE01E359FF4F80E090E049
:103C7000AAEFB4E480839183A283B3838E010759B2
:103C80001F4FFE01E359FF4F608171818281938153
:103C900020E030E04AE755E40E941F02DC01CB013E
:103CA000F80180839183A283B383FE01E759FF4F1C
:103CB000608171818281938120E030E040E85FE3A0
:103CC0000E942504882344F4FE01E959FF4F81E056
:103CD00090E09183808364C0FE01E759FF4F6081CB
:103CE00071818281938120E03FEF4FE757E40E948A
:103CF000C50318160CF043C0FE01E359FF4F608165
:103D000071818281938120E030E040E251E40E94A1
:103D10001F02DC01CB018E0109591F4FBC01CD01EF
:103D20000E944900DC01CB01F801918380831FC010
:103D3000FE01EB59FF4F80E991E091838083FE0102
:103D4000EB59FF4F808191810197F1F7FE01EB590B
:103D5000FF4F91838083DE01A959BF4FFE01E959CE
:103D6000FF4F80819181019711969C938E93FE0164
:103D7000E959FF4F808191810097D1F627C08E01CC
:103D800009591F4FFE01E759FF4F60817181828100
:103D900093810E944900DC01CB01F801918380836B
:103DA000DE01AD59BF4FFE01E959FF4F808191817E
:103DB0008D939C93FE01ED59FF4F80819181019776
:103DC000F1F7FE01ED59FF4F918380838AEC90E07B
:103DD0000E94230C12C0DE01A555BF4FFE01E55520
:103DE000FF4F80818F5F8C938091E800FE01E55545
:103DF000FF4F9081981708F437CB1092E8000DC060
:103E00008091E800882F90E0FC01E852FF4F10827B
:103E10008091E8008F5F8093E8008091E800803116
:103E200078F31092E800FE01E655FF4F8081882369
:103E300009F092C38AEC90E02CE730E062E041E0C8
:103E40000E94B90EFE01E15AFF4F80E090E0AAEF18
:103E5000B3E480839183A283B3838E01055A1F4FFD
:103E6000FE01E15AFF4F608171818281938120E0E0
:103E700030E04AE755E40E941F02DC01CB01F80163
:103E800080839183A283B383FE01E55AFF4F608153
:103E900071818281938120E030E040E85FE30E94FD
:103EA0002504882344F4FE01E75AFF4F81E090E0A7
:103EB0009183808364C0FE01E55AFF4F6081718168
:103EC0008281938120E03FEF4FE757E40E94C503D2
:103ED00018160CF043C0FE01E15AFF4F608171815A
:103EE0008281938120E030E040E251E40E941F0291
:103EF000DC01CB018E01075A1F4FBC01CD010E948E
:103F00004900DC01CB01F801918380831FC0FE01D1
:103F1000E95AFF4F80E991E091838083FE01E95ADD
:103F2000FF4F808191810197F1F7FE01E95AFF4F20
:103F300091838083DE01A75ABF4FFE01E75AFF4FEE
:103F400080819181019711969C938E93FE01E75A8F
:103F5000FF4F808191810097D1F627C08E01075ACB
:103F60001F4FFE01E55AFF4F60817181828193816D
:103F70000E944900DC01CB01F80191838083DE01BE
:103F8000AB5ABF4FFE01E75AFF4F808191818D935D
:103F90009C93FE01EB5AFF4F808191810197F1F7CD
:103FA000FE01EB5AFF4F918380838AEC90E00E94E0
:103FB000230CFE01EF5AFF4F80E090E0AAEFB3E43C
:103FC00080839183A283B3838E01035B1F4FFE0125
:103FD000EF5AFF4F608171818281938120E030E050
:103FE0004AE755E40E941F02DC01CB01F8018083FF
:103FF0009183A283B383FE01E35BFF4F60817181F4
:104000008281938120E030E040E85FE30E94250454
:10401000882344F4FE01E55BFF4F81E090E091834B
:10402000808364C0FE01E35BFF4F60817181828108
:10403000938120E03FEF4FE757E40E94C503181635
:104040000CF043C0FE01EF5AFF4F60817181828105
:10405000938120E030E040E251E40E941F02DC0145
:10406000CB018E01055B1F4FBC01CD010E944900B1
:10407000DC01CB01F801918380831FC0FE01E75B67
:10408000FF4F80E991E091838083FE01E75BFF4F62
:10409000808191810197F1F7FE01E75BFF4F9183EA
:1040A0008083DE01A55BBF4FFE01E55BFF4F808192
:1040B0009181019711969C938E93FE01E55BFF4FD2
:1040C000808191810097D1F627C08E01055B1F4F3B
:1040D000FE01E35BFF4F60817181828193810E94C9
:1040E0004900DC01CB01F80191838083DE01A95BEB
:1040F000BF4FFE01E55BFF4F808191818D939C93C3
:10410000FE01E95BFF4F808191810197F1F7FE018C
:10411000E95BFF4F918380838AEC90E02CE730E0ED
:1041200062E041E00E94B90EFE01ED5BFF4F80E0CE
:1041300090E0AAEFB3E480839183A283B3838E01DE
:10414000015C1F4FFE01ED5BFF4F60817181828139
:10415000938120E030E04AE755E40E941F02DC0131
:10416000CB01F80180839183A283B383FE01FF9684
:10417000608171818281938120E030E040E85FE3DB
:104180000E94250488232CF481E090E09EAF8DAF3F
:1041900046C0FE01FF96608171818281938120E09B
:1041A0003FEF4FE757E40E94C503181664F5FE0180
:1041B000ED5BFF4F608171818281938120E030E06F
:1041C00040E251E40E941F02DC01CB01BC01CD01A1
:1041D0000E944900DC01CB019EAF8DAF0FC080E98A
:1041E00091E09CAF8BAF8BAD9CAD0197F1F79CAF8D
:1041F0008BAF8DAD9EAD01979EAF8DAF8DAD9EAD5A
:10420000009769F716C0FE01FF9660817181828177
:1042100093810E944900DC01CB019EAF8DAF8DAD33
:104220009EAD9AAF89AF89AD9AAD0197F1F79AAF7C
:1042300089AF8AEC90E00E94230C8EC18091E80047
:104240008F5F8093E8008091E800803109F084C19D
:104250001092E8000DC08091E800882F90E0FC01EA
:10426000E852FF4F10828091E8008F5F8093E80052
:104270008091E800803178F31092E8008AEC90E0B9
:104280002BE830E062E041E00E94B90E80E090E06F
:10429000AAEFB3E48DAB9EABAFABB8AF6DA97EA96F
:1042A0008FA998AD20E030E04AE755E40E941F0254
:1042B000DC01CB0189AB9AABABABBCAB69A97AA9EA
:1042C0008BA99CA920E030E040E85FE30E94250430
:1042D00088232CF481E090E098AB8FA73FC069A9B8
:1042E0007AA98BA99CA920E03FEF4FE757E40E94F1
:1042F000C50318164CF56DA97EA98FA998AD20E0CD
:1043000030E040E251E40E941F02DC01CB01BC011D
:10431000CD010E944900DC01CB0198AB8FA70FC0F3
:1043200080E991E09EA78DA78DA59EA50197F1F745
:104330009EA78DA78FA598A9019798AB8FA78FA54A
:1043400098A9009769F714C069A97AA98BA99CA9B3
:104350000E944900DC01CB0198AB8FA78FA598A9DB
:104360009CA78BA78BA59CA50197F1F79CA78BA772
:104370008AEC90E00E94230C80E090E0AAEFB3E486
:104380008FA398A7A9A7BAA76FA178A589A59AA571
:1043900020E030E04AE755E40E941F02DC01CB0137
:1043A0008BA39CA3ADA3BEA36BA17CA18DA19EA159
:1043B00020E030E040E85FE30E94250488232CF4ED
:1043C00081E090E09AA389A33FC06BA17CA18DA15D
:1043D0009EA120E03FEF4FE757E40E94C503181667
:1043E0004CF56FA178A589A59AA520E030E040E2C0
:1043F00051E40E941F02DC01CB01BC01CD010E94EF
:104400004900DC01CB019AA389A30FC080E991E0A8
:1044100098A38F8F8F8D98A10197F1F798A38F8F15
:1044200089A19AA101979AA389A389A19AA100972A
:1044300069F714C06BA17CA18DA19EA10E944900C7
:10444000DC01CB019AA389A389A19AA19E8F8D8FAC
:104450008D8D9E8D0197F1F79E8F8D8F8AEC90E068
:104460002BE830E062E041E00E94B90E80E090E08D
:10447000AAEFB3E4898F9A8FAB8FBC8F698D7A8D49
:104480008B8D9C8D20E030E04AE755E40E941F02AE
:10449000DC01CB018D8B9E8BAF8BB88F6D897E89B4
:1044A0008F89988D20E030E040E85FE30E9425048A
:1044B00088232CF481E090E09C8B8B8B3FC06D892E
:1044C0007E898F89988D20E03FEF4FE757E40E9467
:1044D000C50318164CF5698D7A8D8B8D9C8D20E067
:1044E00030E040E251E40E941F02DC01CB01BC013C
:1044F000CD010E944900DC01CB019C8B8B8B0FC04E
:1045000080E991E09A8B898B89899A890197F1F7E3
:104510009A8B898B8B899C8901979C8B8B8B8B8940
:104520009C89009769F714C06D897E898F89988D61
:104530000E944900DC01CB019C8B8B8B8B899C8971
:10454000988B8F878F8598890197F1F7988B8F8744
:104550008AEC90E00E94230C8AEC90E028ED30E099
:1045600061E041E00E94B90E80E090E0AAE7B3E488
:104570008B879C87AD87BE876B857C858D859E8567
:1045800020E030E04AE755E40E941F02DC01CB0145
:104590008F839887A987BA876F81788589859A855F
:1045A00020E030E040E85FE30E94250488232CF4FB
:1045B00081E090E09E838D833FC06F8178858985FF
:1045C0009A8520E03FEF4FE757E40E94C503181695
:1045D0004CF56B857C858D859E8520E030E040E242
:1045E00051E40E941F02DC01CB01BC01CD010E94FD
:1045F0004900DC01CB019E838D830FC080E991E0EF
:104600009C838B838B819C810197F1F79C838B83A7
:104610008D819E8101979E838D838D819E810097E0
:1046200069F714C06F81788589859A850E94490051
:10463000DC01CB019E838D838D819E819A8389834A
:1046400089819A810197F1F79A838983C353DF4F58
:104650000FB6F894DEBF0FBECDBFCF91DF911F9193
:104660000F91FF90EF900895DF93CF93CDB7DEB712
:104670000E94C0190E94CF19FDCF629FD001739F85
:10468000F001829FE00DF11D649FE00DF11D929FEE
:10469000F00D839FF00D749FF00D659FF00D99272D
:1046A000729FB00DE11DF91F639FB00DE11DF91F51
:1046B000BD01CF0111240895A1E21A2EAA1BBB1B34
:1046C000FD010DC0AA1FBB1FEE1FFF1FA217B307DE
:1046D000E407F50720F0A21BB30BE40BF50B661FF4
:1046E000771F881F991F1A9469F7609570958095B8
:1046F00090959B01AC01BD01CF0108952F923F928F
:104700004F925F926F927F928F929F92AF92BF92E1
:10471000CF92DF92EF92FF920F931F93CF93DF938D
:10472000CDB7DEB7CA1BDB0B0FB6F894DEBF0FBEEA
:10473000CDBF09942A88398848885F846E847D8437
:104740008C849B84AA84B984C884DF80EE80FD8039
:104750000C811B81AA81B981CE0FD11D0FB6F894AF
:10476000DEBF0FBECDBFED010895FC01882799275C
:10477000E89421912032E9F3293010F02E30C8F36B
:104780002B3241F02D3239F4689404C00E94D323B7
:10479000820F911D219120532A30C0F31EF4909571
:1047A00081959F4F08957AE0979F902D879F802D48
:1047B000910D11240895AEE0B0E0E1EEF3E20C9427
:1047C0008C230D891E8986E08C831A8309838FEFE1
:1047D0009FE79E838D839E01275E3F4FCE0101960A
:1047E0006F89788DA9010E94FF232F813885020FE0
:1047F000131FF80110822E96E4E00C94A823ABE07E
:10480000B0E0E5E0F4E20C947E233C012B015A0178
:10481000FC0117821682838181FD03C06FEF7FEF59
:10482000C6C19AE0892E1E010894211C311CF30197
:104830002381F20123FD859123FF81912F0188239C
:1048400009F4B2C1853239F423FD859123FF8191AA
:104850002F01853229F490E0B3010E94F225E7CFC1
:10486000982FFF24EE249924FFE1FF15D0F09B320E
:1048700069F09C3228F4903259F0933291F40EC0D2
:104880009D3249F0903369F441E024C052E0F52AAA
:1048900084E0F82A28C098E0F92A25C0E0E1FE2A41
:1048A00022C0F7FC29C0892F80538A3070F4F6FEAD
:1048B00005C0989C902C1124980E15C0E89CE02C03
:1048C0001124E80EF0E2FF2A0EC09E3229F4F6FC15
:1048D0006BC140E4F42A07C09C3619F450E8F52A6D
:1048E00002C0983649F4F20123FD959123FF91917E
:1048F0002F01992309F0B8CF892F8554833018F000
:104900008052833038F444E050E0A40EB51E5FE3DB
:1049100059830FC0933631F0933779F0933509F00E
:1049200056C020C0F5018081898342E050E0A40E8A
:10493000B51E610101E010E012C0F501C080D18018
:10494000F6FC03C06FEF7FEF02C0692D70E042E01C
:1049500050E0A40EB51EC6010E94E7258C015FE75A
:10496000F52214C0F501C080D180F6FC03C06FEFC2
:104970007FEF02C0692D70E042E050E0A40EB51E4A
:10498000C6010E94DC258C0150E8F52AF3FE07C021
:104990001AC080E290E0B3010E94F225EA948E2DC5
:1049A00090E008171907A8F30EC0F601F7FC8591EF
:1049B000F7FE81916F0190E0B3010E94F225E110B2
:1049C000EA94015010400115110579F7EAC09436B8
:1049D00011F0993669F5F7FE08C0F50120813181A3
:1049E0004281538184E090E00AC0F5018081918189
:1049F0009C01442737FD4095542F82E090E0A80E9B
:104A0000B91E9FE6F92257FF09C050954095309591
:104A100021953F4F4F4F5F4FE0E8FE2ACA01B90191
:104A2000A1012AE030E00E941E26D82ED21840C0F4
:104A3000953729F41F2D1F7E2AE030E01DC01F2D61
:104A4000197F9F3661F0903720F4983509F0ACC09B
:104A50000FC0903739F0983709F0A6C004C028E09D
:104A600030E00AC0106114FD146020E130E004C0A1
:104A700014FD166020E132E017FF08C0F5016081E7
:104A800071818281938144E050E008C0F50180810A
:104A90009181BC0180E090E042E050E0A40EB51EA0
:104AA000A1010E941E26D82ED2188FE7F82EF122DF
:104AB000F6FE0BC05EEFF522D91438F4F4FE07C001
:104AC000F2FC05C08FEEF82202C01D2D01C0192D89
:104AD000F4FE0DC0FE01ED0DF11D8081803319F44F
:104AE00099EEF92208C01F5FF2FE05C003C08F2DAA
:104AF000867809F01F5F0F2DF3FC14C0F0FE0FC085
:104B00001E1510F09D2C0BC09D2C9E0C911A1E2D75
:104B100006C080E290E0B3010E94F2251F5F1E15DF
:104B2000C0F304C01E1510F4E11A01C0EE2404FF06
:104B30000FC080E390E0B3010E94F22502FF1DC088
:104B400001FD03C088E790E00EC088E590E00BC04F
:104B5000802F867891F001FF02C08BE201C080E2D5
:104B6000F7FC8DE290E0B3010E94F22506C080E3DD
:104B700090E0B3010E94F2259A94D914C0F3DA941C
:104B8000F101ED0DF11D808190E0B3010E94F2254D
:104B9000DD20A9F706C080E290E0B3010E94F22573
:104BA000EA94EE20C1F743CEF30166817781CB0111
:104BB0002B96E2E10C949A23FC0105906150704021
:104BC0000110D8F7809590958E0F9F1F0895FC01D6
:104BD0006150704001900110D8F7809590958E0F2C
:104BE0009F1F08950F931F93CF93DF938C01EB01C9
:104BF0008B8181FF1BC082FF0DC02E813F818C8184
:104C00009D812817390764F4E881F9810193F983BC
:104C1000E88306C0E885F985802F0995892B31F452
:104C20008E819F8101969F838E8302C00FEF1FEFBD
:104C3000C801DF91CF911F910F910895FA01AA2722
:104C4000283051F1203181F1E8946F936E7F6E5FCF
:104C50007F4F8F4F9F4FAF4FB1E03ED0B4E03CD07D
:104C6000670F781F891F9A1FA11D680F791F8A1F60
:104C7000911DA11D6A0F711D811D911DA11D20D0C7
:104C800009F468943F912AE0269F11243019305D81
:104C90003193DEF6CF010895462F4770405D419372
:104CA000B3E00FD0C9F7F6CF462F4F70405D4A33BF
:104CB00018F0495D31FD4052419302D0A9F7EACF87
:104CC000B4E0A6959795879577956795BA95C9F7B6
:104CD00000976105710508959B01AC010A2E0694A9
:104CE0005795479537952795BA95C9F7620F731F62
:0C4CF000841F951FA01D0895F894FFCFAD
:104CFC002569006F70657261746F723A20004449C7
:104D0C0056206279205A45524F2121004E6F206F58
:104D1C0070657261746F72212121002121204F5620
:104D2C004552464C4F572021210000000000000046
:104D3C0000003A003700340031003B0038003500E9
:104D4C00320039003600330030003738392F343513
:104D5C00362A3132332D63303D2B04080C101418D5
:084D6C001115191D0B0F13179F
:00000001FF
